:04000000020049327F
:01000B0032C2
:0100130032BA
:01001B0032B2
:0100230032AA
:01002B0032A2
:01003300329A
:01003B003292
:0300430002009028
:03008D0002004628
:030046000200CFE6
:10009000C021C0E0C0F0C082C083C007C006C00558
:1000A000C004C003C002C001C000C0D075D000129F
:1000B0000836D0D0D000D001D002D003D004D00573
:1000C000D006D007D083D082D0F0D0E0D0213275D6
:1000D000A15575A1AA53B9F843B90575A1009000BF
:1000E0000512010E12053890010BE060FA1204347B
:1000F0001203D01203B680EFAE82AF83EE4F600DD5
:1001000005A105A105A11EBEFF011F80EF22AE8241
:10011000AF83EE4F6011E5C330E7FBE5C320E7FB9B
:100120001EBEFF011F80EB224396025397FD4396AC
:10013000015397FE22AF827E08EF30E706D2B1A2CC
:10014000B18004C2B1A2B1D2B080008000C2B01EA2
:100150008F05ED2DFFEE70E1D2B180008000D2B0AE
:1001600080008000C2B022C2B18000C2B00201355E
:10017000D2B18000D2B0020167C2B18000D2B0809B
:1001800000D2B122AF827E00D2B17D088E04EC2C69
:10019000FE8000D2B030B103430601C2B0ED14FCC2
:1001A000FD70E9EF6002C2B180008000D2B0800033
:1001B0008000C2B08E8222AF82758278C0071201A1
:1001C00067758200120135D00774B02FF5821201D5
:1001D00035758200120135758210120135020179E0
:1001E0001201B77582781201677582401201357F5E
:1001F00080758200C007120135D007EF14FF70F13F
:100200000201797F008F82C0071201E0D0070FBF83
:10021000080040F1900102E0FF900100F090010120
:10022000E4F0EF2FFF74075FF5820201B79001023F
:10023000E0F5821201E0900102E0FF0F74075FF029
:100240007582781201677582001201357582D312AA
:100250000135900102E0C40354F8F5821201350221
:1002600001791201287582781201677582001201E6
:10027000357F00EF900A9A93F582C007120135D0BE
:10028000070FBF0B0040EC120179900102E4F0026D
:100290000203AF827E00EF24E0FFEE34FFFEEF2F7B
:1002A000FCEE33FDEC2CFCED33FDEC2FFCED3EFDC4
:1002B000758278C005C0041201677582401201354D
:1002C000D004D0057F058C06EE24BAF582ED340803
:1002D000F5830EBE00010DE493F582C007C006C091
:1002E00005120135D005D006D007EF14FF70D9F5FF
:1002F00082120135020179AF8253077FBF2000408F
:100300003B8F82120292900101E02401F0E024EB85
:10031000400122900101E4F0900100E0FEBE0705DB
:1003200012022D8006900100EE04F0900102E0FE22
:10033000900100E02E5407F5820201B7BF0A299010
:100340000101E4F0900100E0FEBE070512022D80DD
:1003500006900100EE04F0900102E0FE900100E042
:100360002E5407F5820201B7BF0D16900101E4F08B
:10037000900102E0FF900100E02F5407F582020196
:10038000B722AD82AE83AFF08D828E838FF01208DC
:100390009AFC60188C820DBD00010EC007C006C01B
:1003A000051202F7D005D006D00780DC22120382A6
:0603B00075820A0202F74B
:1008BA00000000000000005F0000000700070014AD
:1008CA007F147F14242A7F2A12231308646236496C
:1008DA005522500004030000001C2241000041225E
:1008EA001C0014083E081408083E0808008060002E
:1008FA0000080808080800606000002010080402C8
:10090A003E5149453E44427F404042615149462258
:10091A00414949361814127F102F494949313E4935
:10092A004949320301710907364949493626494975
:10093A00493E003636000000806800000008142294
:10094A000014141414140022140800020151090698
:10095A003E415D555E7C1211127C7F494949363E03
:10096A00414141227F4141221C7F494949417F0936
:10097A000909013E4149493A7F0808087F41417FF8
:10098A0041412040413F017F081422417F404040BD
:10099A00407F020C027F7F0408107F3E4141413EA6
:1009AA007F090909063E4141C1BE7F091929462628
:1009BA004949493201017F01013F4040403F1F2020
:1009CA0040201F3F4038403F6314081463070870F3
:1009DA0008076151494543007F414100020408105C
:1009EA00200041417F000804020408404040404082
:1009FA00000003040020545454787F444444383897
:100A0A0044444428384444447F385454541808FE13
:100A1A0009010218A4A4A4787F0404047800447D80
:100A2A0040000080847D00417F10284400417F40BF
:100A3A00007C047C04787C040404783844444438F8
:100A4A00FC2424241818242424FC7C080404080800
:100A5A0054545420043F4440203C4040403C1C2015
:100A6A0040201C3C4030403C44281028441CA0A094
:100A7A00A07C4464544C4408083641410000FF00FD
:100A8A000041413608080804081008FFFFFFFFFF6D
:0B0A9A00A83F8D142002DA12A1C8AFA3
:10005C00C200900103E4F074C2A3F07401A3F0E4B5
:10006C00A3F0900107F0900108F09001097408F0DA
:10007C0090010AE4F090010BF090010CF090010D4E
:01008C00F083
:1003B60020001690010DE06010D20090010DE0F5CE
:1003C600D553D4FC90010DE4F022AF822000FD90BD
:1003D600010DE0FE04F07D0074402EFEE43DFDEECE
:1003E6002414F582ED3400F583EFF090010DE0FF63
:1003F600BF40030203B622AD82AE83AFF08D828E7C
:10040600838FF012089AFC60188C820DBD00010ED5
:10041600C007C006C0051203D0D005D006D007809D
:10042600DC221203FD75820A1203D00203B6900184
:100436000BE060FA90010CE0FF04F0EF2414F58263
:10044600E43400F583E0FF90010BE014FEF0EE705B
:100456000353D4F38F82227E0A7F008EEE8FEF7EC7
:10046600147F008EE48FE575D21275D41275EB0CED
:1004760075EA4075D30075D50090010BE4F0C20013
:1004860022AF08BF20028036BF21028005BF22327C
:1004960080207F008F057E00EF2403F582E434017F
:1004A600F583E08D828E83F00FBF070040E67582EC
:1004B6000722900002E090010AF075820022758200
:1004C60000227582FF227420B5082A7F0074F92560
:1004D600DB50047E078002AEDBC3EF9E5017EF248D
:1004E60003FDE43401FE8F82758300E0FC8D828E6D
:1004F60083F00F80D875DC402274FC55D44402F595
:10050600D4C2002230DE17E5DB601374F355D44401
:0F05160008F5D490010BE5DBF090010CE4F02226
:100AA50012011001000000080912DD2700010102F2
:100AB500030109024B000201008032080B0002020B
:100AC50002010409040000010202010405240010CA
:100AD5000105240100000424020205240600010783
:100AE50005810308000109040100020A000004074A
:100AF50005020240000007058202400000040309C8
:100B050004220355006E00690074002D0045006C39
:100B15000065006300740072006F006E0069006379
:100B25000073001E035500530042005F004300445C
:100B35000043002D00530065007200690061006CE0
:100B45000038036700690074006800750062002EB4
:100B55000063006F006D002F0055006E0069007482
:100B6500002D0045006C0065006300740072006F85
:100B7500006E0069006300730016034300440043E0
:0F0B8500002000530065007200690061006C00E1
:100525007E007F008EEC8FED75DC0275DD00C2016B
:1005350002045D75E22975D18112052575E10775FE
:10054500D81FD2EAD2AF22C0E0C007AF8205A29081
:10055500000015A2850E82850F83E493A3A5DFFA1B
:1005650085820E85830FD007D0E0227F009000079B
:10057500E0FD7E00900006E0FC7B004EF50CEB4DA7
:10058500F50D900001E0F508900000E0F509E5099A
:1005950054606003020794E508FE24F45003020743
:1005A50090EEF5F0240B83F582E5F0241083F583B6
:1005B500E473B4D4902F9083CF908CA9AAAA060691
:1005C50007070706050706060707900003E0FEBEB6
:1005D5000102800ABE0202800FBE03688014750EF8
:1005E500A5750F0A7F12805E750EB7750F0A7F4BD2
:1005F5008054900002E0FE24FB4038EE2E90060663
:10060500738008800E8014801A8020750E02750F85
:100615000B8026750E06750F0B801E750E28750F3F
:100625000B8016750E46750F0B800E750E7E750FB9
:100635000B8006750E46750F0B850E82850F83E4BC
:1006450093FF80027FFFBFFF030207AA8F057E008D
:10065500C3ED950CEE950D50048D0C8E0DAD0CAEC5
:100665000DC3ED9408EE940040067D087E008004DD
:10067500AD0CAE0D8D078F8212054C0207AA9000B6
:1006850002E0F50B0207AA900000E50AF0AD0CAEFA
:100695000DC374019DE49E5006750C01750D00AFE8
:1006A5000C0207AA900002E0F50AD2010207AA90FF
:1006B5000000E4F0900001F0AD0CAE0DC374029D96
:1006C500E49E5006750C02750D00AF0C0207AAE5F5
:1006D50009541F701E900002E0FEBE0111900ABE73
:1006E500E493FE30E5030207AA7FFF0207AA7FFF16
:1006F5000207AAAD0953051F7E00BD0228BE0025CD
:10070500900004E0FEBE02028005BE8213800653FF
:10071500D4730207AA74BC55D44402F5D40207AABF
:100725007FFF0207AA7FFF0207AAE509541F701978
:10073500900002E0FEBE010D900ABEE493FE20E5A6
:10074500647FFF80607FFF805CAD0953051F7E00DD
:10075500BD0234BE0031900002E07027900004E035
:10076500FEBE02028005BE8216800A747F55D444FF
:100775000CF5D4803074BF55D44403F5D480267F5E
:10078500FF80227FFF801E7FFF801A7FFF8016ADCE
:10079500095305607E00BD200ABE0007120487AF1D
:1007A5008280027FFFBFFF077508FF75DCCF228FB0
:1007B500057E00AB0CAC0DEBC39DFBEC9EFC8B0CDE
:1007C5008C0D8FDD75DCC022AF08BF0502803CBFF4
:1007D5000647AE0CAF0DC3EE9408EF940040067EBD
:1007E500087F008004AE0CAF0D8E8212054C8E057D
:1007F5007F00AB0CAC0DEBC39DFBEC9FFC8B0C8C15
:100805000D8EDDAEDC6306408EDC22E5E35480FF11
:10081500E50B4FF5E375DC822275DC8222AE0953C8
:1008250006607F00BE2006BF00030204CC75DC40D5
:100835002230D94FE5D9540FFFADD95305307E008D
:10084500BD0005BE00028027BD2005BE0002800B4D
:10085500BD302EBE002B1205708026BF000280051C
:10086500BF021E80051207CD80171204FF8012BF3C
:1008750000028005BF020A800512082280031205C6
:100885000AC2D910DA02800030D80912052575E3AD
:050895000075D81F22D0
:06005600E478FFF6D8FD7E
:0D0049007581211208B6E5826003020046B1
:10089A0020F71430F6148883A88220F507E6A88387
:1008AA0075830022E280F7E49322E0227582002217
:00000001FF
