:04000000020049327F
:01000B0032C2
:0100130032BA
:01001B0032B2
:0100230032AA
:01002B0032A2
:01003300329A
:01003B003292
:0300430002009028
:03008D0002004628
:030046000200D4E1
:10009000C021C0E0C0F0C082C083C007C006C00558
:1000A000C004C003C002C001C000C0D075D000129F
:1000B00008E0D0D0D000D001D002D003D004D005C9
:1000C000D006D007D083D082D0F0D0E0D02132AE9D
:1000D000828E9B2275A15575A1AA53B9F843B90523
:1000E00075A1009000051201B81205E2759EFF533C
:1000F00096EF439710539DFD53C6F7439D08759B9C
:1001000000750800750900750A00750B00750C0074
:1001100090010BE060FA75170075180575190090CD
:10012000000875F0401209447E007F00C3EE94047D
:10013000EF64809480502390010BE0601DEE240852
:10014000F9C007C006C0011204DEE582D001D00666
:10015000D007F70EBE00D50F80D290000875F04092
:10016000120963AE82E583FF20E72BC374FF9E7400
:10017000808FF063F08095F0401C8E828F83120098
:10018000CF900A7375F0801204A790000875F040B4
:100190001204D2020110900A8475F0801204D20277
:0201A00001104C
:100A730050574D207570646174656420746F3A201B
:100A8300004572726F723A2056616C7565206F75FE
:100A930074206F662072616E67652028302D3235B1
:030AA300352900F2
:1001A200AE82AF83EE4F600D05A105A105A11EBE73
:1001B200FF011F80EF22AE82AF83EE4F6011E5C3D5
:1001C20030E7FBE5C320E7FB1EBEFF011F80EB22E9
:1001D2004396025397FD4396015397FE22AF827EC8
:1001E20008EF30E706D2B1A2B18004C2B1A2B1D207
:1001F200B080008000C2B01E8F05ED2DFFEE70E1D1
:10020200D2B180008000D2B080008000C2B022C291
:10021200B18000C2B00201DFD2B18000D2B00202CE
:1002220011C2B18000D2B08000D2B122AF827E0072
:10023200D2B17D088E04EC2CFE8000D2B030B10326
:10024200430601C2B0ED14FCFD70E9EF6002C2B1D9
:1002520080008000D2B080008000C2B08E8222AFC7
:1002620082758278C0071202117582001201DFD0F6
:100272000774B02FF5821201DF7582001201DF755B
:1002820082101201DF0202231202617582781202C9
:10029200117582401201DF7F80758200C007120152
:1002A200DFD007EF14FF70F10202237F008F82C0BC
:1002B2000712028AD0070FBF080040F1900102E046
:1002C200FF900100F0900101E4F0EF2FFF74075F4F
:1002D200F582020261900102E0F58212028A900127
:1002E20002E0FF0F74075FF07582781202117582C7
:1002F200001201DF7582D31201DF900102E0C40314
:1003020054F8F5821201DF0202231201D2758278BB
:100312001202117582001201DF7F00EF900C8693AA
:10032200F582C0071201DFD0070FBF0B0040EC12AD
:100332000223900102E4F00202ADAF827E00EF24BC
:10034200E0FFEE34FFFEEF2FFCEE33FDEC2CFCED74
:1003520033FDEC2FFCED3EFD758278C005C0041222
:1003620002117582401201DFD004D0057F058C0690
:10037200EE24A6F582ED340AF5830EBE00010DE4EB
:1003820093F582C007C006C0051201DFD005D00672
:10039200D007EF14FF70D9F5821201DF020223AFFA
:1003A2008253077FBF2000403B8F8212033C9001A3
:1003B20001E02401F0E024EB400122900101E4F08D
:1003C200900100E0FEBE07051202D78006900100F0
:1003D200EE04F0900102E0FE900100E02E5407F5D9
:1003E20082020261BF0A29900101E4F0900100E05B
:1003F200FEBE07051202D78006900100EE04F090BF
:100402000102E0FE900100E02E5407F58202026133
:10041200BF0D16900101E4F0900102E0FF9001008F
:10042200E02F5407F58202026122AD82AE83AFF063
:100432008D828E838FF0120A53FC60188C820DBD60
:1004420000010EC007C006C0051203A1D005D006E8
:0E045200D00780DC2212042C75820A0203A15E
:100AA600000000000000005F0000000700070014BF
:100AB6007F147F14242A7F2A12231308646236497E
:100AC6005522500004030000001C22410000412270
:100AD6001C0014083E081408083E08080080600040
:100AE60000080808080800606000002010080402DA
:100AF6003E5149453E44427F40404261514946226B
:100B0600414949361814127F102F494949313E4947
:100B16004949320301710907364949493626494987
:100B2600493E0036360000008068000000081422A6
:100B360000141414141400221408000201510906AA
:100B46003E415D555E7C1211127C7F494949363E15
:100B5600414141227F4141221C7F494949417F0948
:100B66000909013E4149493A7F0808087F41417F0A
:100B760041412040413F017F081422417F404040CF
:100B8600407F020C027F7F0408107F3E4141413EB8
:100B96007F090909063E4141C1BE7F09192946263A
:100BA6004949493201017F01013F4040403F1F2032
:100BB60040201F3F4038403F631408146307087005
:100BC60008076151494543007F414100020408106E
:100BD600200041417F000804020408404040404094
:100BE600000003040020545454787F4444443838A9
:100BF60044444428384444447F385454541808FE26
:100C060009010218A4A4A4787F0404047800447D92
:100C160040000080847D00417F10284400417F40D1
:100C2600007C047C04787C0404047838444444380A
:100C3600FC2424241818242424FC7C080404080812
:100C460054545420043F4440203C4040403C1C2027
:100C560040201C3C4030403C44281028441CA0A0A6
:100C6600A07C4464544C4408083641410000FF000F
:100C76000041413608080804081008FFFFFFFFFF7F
:0B0C8600A83F8D142002DA12A1C8AFB5
:10005C00C200900103E4F074C2A3F07401A3F0E4B5
:10006C00A3F0900107F0900108F09001097408F0DA
:10007C0090010AE4F090010BF090010CF090010D4E
:01008C00F083
:1004600020001690010DE06010D20090010DE0F523
:10047000D553D4FC90010DE4F022AF822000FD9012
:10048000010DE0FE04F07D0074402EFEE43DFDEE23
:100490002414F582ED3400F583EFF090010DE0FFB8
:1004A000BF400302046022AD82AE83AFF08D828E26
:1004B000838FF0120A53FC60188C820DBD00010E70
:1004C000C007C006C00512047AD005D006D0078048
:1004D000DC221204A775820A12047A0204609001D9
:1004E0000BE060FA90010CE0FF04F0EF2414F582B9
:1004F000E43400F583E0FF90010BE014FEF0EE70B1
:100500000353D4F38F82227E0A7F008EEE8FEF7E1C
:10051000147F008EE48FE575D21275D41275EB0C42
:1005200075EA4075D30075D50090010BE4F0C20068
:1005300022AF0DBF20028036BF21028005BF2232CC
:1005400080207F008F057E00EF2403F582E43401D4
:10055000F583E08D828E83F00FBF070040E6758241
:100560000722900002E090010AF075820022758255
:1005700000227582FF227420B50D2A7F0074F925B0
:10058000DB50047E078002AEDBC3EF9E5017EF24E2
:1005900003FDE43401FE8F82758300E0FC8D828EC2
:1005A00083F00F80D875DC402274FC55D44402F5EA
:1005B000D4C2002230DE17E5DB601374F355D44457
:0F05C00008F5D490010BE5DBF090010CE4F0227C
:100C910012011001000000080912DD270001010204
:100CA100030109024B000201008032080B0002021D
:100CB10002010409040000010202010405240010DC
:100CC1000105240100000424020205240600010795
:100CD10005810308000109040100020A000004075C
:100CE10005020240000007058202400000040309DA
:100CF10004220355006E00690074002D0045006C4C
:100D01000065006300740072006F006E006900638B
:100D11000073001E035500530042005F004300446E
:100D21000043002D00530065007200690061006CF2
:100D31000038036700690074006800750062002EC6
:100D41000063006F006D002F0055006E0069007494
:100D5100002D0045006C0065006300740072006F97
:100D6100006E0069006300730016034300440043F2
:0F0D7100002000530065007200690061006C00F3
:1005CF007E007F008EEC8FED75DC0275DD00C201C1
:1005DF0002050775E22975D1811205CF75E10775FF
:1005EF00D81FD2EAD2AF22C0E0C007AF8205A290D7
:1005FF00000015A2851382851483E493A3A5DFFA67
:10060F00858213858314D007D0E0227F00900007E6
:10061F00E0FD7E00900006E0FC7B004EF511EB4DF7
:10062F00F512900001E0F50D900000E0F50EE50EDB
:10063F005460600302083EE50DFE24F450030208E7
:10064F003AEEF5F0240B83F582E5F0241083F58361
:10065F00E4735E7E3AD93A2D793A365354540707EC
:10066F0008070807060807070808900003E0FEBE02
:10067F000102800ABE0202800FBE03688014751348
:10068F009175140C7F12805E7513A375140C7F4B3C
:10069F008054900002E0FE24FB4038EE2E9006B00E
:1006AF00738008800E8014801A80207513EE7514E5
:1006BF000C80267513F275140C801E7513147514A7
:1006CF000D801675133275140D800E75136A75141F
:1006DF000D800675133275140D851382851483E40E
:1006EF0093FF80027FFFBFFF030208548F057E0038
:1006FF00C3ED9511EE951250048D118E12AD11AE02
:10070F0012C3ED9408EE940040067D087E0080042D
:10071F00AD11AE128D078F821205F60208549000AC
:10072F0002E0F510020854900000E50FF0AD11AE95
:10073F0012C374019DE49E5006751101751200AF2E
:10074F0011020854900002E0F50FD20102085490F4
:10075F000000E4F0900001F0AD11AE12C374029DE1
:10076F00E49E5006751102751200AF11020854E590
:10077F000E541F701E900002E0FEBE0111900CAAD5
:10078F00E493FE30E5030208547FFF0208547FFF15
:10079F00020854AD0E53051F7E00BD0228BE002572
:1007AF00900004E0FEBE02028005BE821380065355
:1007BF00D47302085474BC55D44402F5D4020854BF
:1007CF007FFF0208547FFF020854E50E541F701973
:1007DF00900002E0FEBE010D900CAAE493FE20E50E
:1007EF00647FFF80607FFF805CAD0E53051F7E002E
:1007FF00BD0234BE0031900002E07027900004E08B
:10080F00FEBE02028005BE8216800A747F55D44454
:10081F000CF5D4803074BF55D44403F5D480267FB3
:10082F00FF80227FFF801E7FFF801A7FFF8016AD23
:10083F000E5305607E00BD200ABE0007120531AFC2
:10084F008280027FFFBFFF07750DFF75DCCF228F00
:10085F00057E00AB11AC12EBC39DFBEC9EFC8B1124
:10086F008C128FDD75DCC022AF0DBF0502803CBF3F
:10087F000647AE11AF12C3EE9408EF940040067E08
:10088F00087F008004AE11AF128E821205F68E051E
:10089F007F00AB11AC12EBC39DFBEC9FFC8B118C5B
:1008AF00128EDDAEDC6306408EDC22E5E35480FF62
:1008BF00E5104FF5E375DC822275DC8222AE0E5314
:1008CF0006607F00BE2006BF000302057675DC4080
:1008DF002230D94FE5D9540FFFADD95305307E00E3
:1008EF00BD0005BE00028027BD2005BE0002800BA3
:1008FF00BD302EBE002B12061A8026BF00028005C7
:10090F00BF021E800512087780171205A98012BF3B
:10091F0000028005BF020A80051208CC8003120571
:10092F00B4C2D910DA02800030D8091205CF75E3AE
:05093F000075D81F2225
:06005600E478FFF6D8FD7E
:10094400AC82AD83AE18AF19BE0004EF600C1F0F6C
:10095400E517120A1BA3DEFADFF88C828D8322AD21
:1009640082AE83AFF07B007C008D828E838FF01289
:100974000A53FABA20028003BA09070DBD00EA0E31
:1009840080E78D008E018F028D828E838FF0120A94
:1009940053FFE4BF2D0104FEBF2D028003BF2B05CE
:1009A40008B8000109880789058F828D838AF012AF
:1009B4000A53F9B93000404AE924C640458B178CE4
:1009C4001890000AC007C006C005C002120A368586
:1009D4008215858316D002D005D006D0078F828D6C
:1009E400838AF0120A53F9A3AF82AD838900790098
:1009F400E824D0F8E934FFF9E82515FBE93516FCBD
:100A040080A7EE6009C3E49BFEE49CFF80048B0690
:100A14008C078E828F832220F71130F6138883A8E7
:100A24008220F509F6A8837583002280FEF280F502
:100A3400F022E5828517F0A4C582C0F08518F0A4E1
:0F0A4400D0F025F0C5838517F0A42583F5832214
:0D004900758121120A6FE5826003020046F6
:100A530020F71430F6148883A88220F507E6A883CC
:100A630075830022E280F7E49322E022758200225C
:00000001FF
